:100000000C9462000C948A000C948A000C948A0070
:100010000C948A000C948A000C948A000C948A0038
:100020000C948A000C948A000C948A000C948A0028
:100030000C948A000C948A000C948A000C948A0018
:100040000C941D080C948A000C94F1040C943F0548
:100050000C948A000C948A000C948A000C948A00F8
:100060000C948A000C948A000000000024002700F1
:100070002A0000000000250028002B0000000000DE
:1000800023002600290004040404040404040202DA
:100090000202020203030303030301020408102007
:1000A0004080010204081020010204081020000012
:1000B0000007000201000003040600000000000029
:1000C0000000AB0611241FBECFEFD8E0DEBFCDBFCE
:1000D00011E0A0E0B1E0E2EFF8E102C005900D927E
:1000E000A034B107D9F712E0A0E4B1E001C01D923D
:1000F000A331B107E1F710E0C4ECD0E004C02297CF
:10010000FE010E94730CC23CD107C9F70E9401078F
:100110000C94770C0C940000AA2797FDA095BA2F99
:10012000BC01CD010E94990A9B01AC016AE979E901
:1001300089E99EE30E94FE0920E034E244E759E4A5
:100140000E944D0B20E030E040E251E40E9495090E
:1001500060932A0170932B0180932C0190932D01C1
:1001600008952F923F924F925F926F927F928F925B
:100170009F92AF92BF92CF92DF92EF92FF920F9336
:100180001F93DF93CF9300D000D0CDB7DEB75B01D4
:100190006C0179018A01CA01B90120E030E040E830
:1001A0005FE30E94490B88232CF08091200160E0DE
:1001B0000E946209C801B70120E030E040E050E051
:1001C0000E94FA0918161CF40FEF1FEF07C0809168
:1001D000200161E00E94620901E010E0C601B50162
:1001E00020E030E040E85FE30E94490B88232CF0D8
:1001F00080911E0160E00E946209C601B50120E005
:1002000030E040E050E00E94FA0918160CF406C1F4
:1002100080911E0161E00E94620981E090E000C1CE
:100220008091260161E00E94620960912A0170912B
:100230002B0180912C0190912D010E946B0ADC0111
:10024000CB010E94B1088091260160E00E94620902
:100250006090500170905101809052019090530134
:1002600029813A814B815C81620E731E841E951E2A
:10027000609250017092510180925201909253010C
:10028000A0904601B0904701B501882777FD809581
:10029000982F209148013091490140914A01509195
:1002A0004B01E0904C01F0904D0100914E011091F6
:1002B0004F012E193F09400B510B0E94150C209144
:1002C0005401309155014091560150915701620FF0
:1002D000731F841F951F661977098809990922E001
:1002E00030E040E050E0622773278427952742E002
:1002F00050E0A426B5260894A11CB11CCC24B7FC60
:10030000C094DC2C70C08091240161E00E946209DD
:1003100060912A0170912B0180912C0190912D0107
:100320000E946B0ADC01CB010E94B108809124017C
:1003300060E00E94620960914801709149018091DA
:100340004A0190914B01620D731D841D951D6093B0
:1003500048017093490180934A0190934B01A0900A
:100360004601B0904701E0905401F0905501009192
:100370005601109157012091500130915101409147
:10038000520150915301E21AF30A040B150B20910C
:100390004C0130914D0140914E0150914F01621B33
:1003A000730B840B950B9501442737FD4095542F13
:1003B0000E94150CE60EF71E081F191F82E090E040
:1003C000A0E0B0E0E826F9260A271B27A2E0B0E06B
:1003D000AA26BB260894A11CB11CCC24B7FCC0944F
:1003E000DC2CC801B701A60195010E94560CCA0178
:1003F000B9010E94990A0E94B40B7B018C018AE02A
:1004000090E00E94B108C801B70120E030E040E868
:100410005FE30E94490B18168CF475CF8FEF9FEFA6
:100420009801442737FD4095542F29833A834B8305
:100430005C831C01442437FC4094542C20914801D7
:100440003091490140914A0150914B0180914C01FA
:1004500090914D01A0914E01B0914F01281739079D
:100460004A075B070CF4DCCE0F900F900F900F90B3
:10047000CF91DF911F910F91FF90EF90DF90CF9080
:10048000BF90AF909F908F907F906F905F904F90B4
:100490003F902F900895CF92DF92EF92FF920F93AB
:1004A0001F93CF93DF937B018C01A80197010E94DA
:1004B0004D0B0E94B40B0E94660A6B01C801B70184
:1004C00020E030E040E85FE30E94490B88232CF0F5
:1004D0008091220160E00E946209C801B70120E01A
:1004E00030E040E050E00E94FA0918162CF08091AC
:1004F000220161E00E94620988EE91E00E943A07C1
:1005000061E070E080E090E00E948B08C0E0D0E005
:100510001DC08091280161E00E94620960912A015A
:1005200070912B0180912C0190912D010E946B0AFA
:10053000DC01CB010E94B1088091280160E00E949B
:1005400062098AE090E00E94B1082196CC15DD0591
:1005500004F3609158017091590180915A01909172
:100560005B010E94990AA80197010E9496090E94C6
:10057000660A609358017093590180935A019093D1
:100580005B0188EE91E060E071E00E941A08409102
:1005900058015091590160915A0170915B0188EEA8
:1005A00091E02AE030E00E94DA0761E070E080E04C
:1005B00090E00E948B08DF91CF911F910F91FF90E7
:1005C000EF90DF90CF900895CF92DF92EF92FF925D
:1005D0000F931F93CF93DF937B018C01A8019701A9
:1005E0000E944D0B0E94B40B0E94660A6B01C80169
:1005F000B70120E030E040E85FE30E94490B882328
:100600002CF08091200160E00E946209C801B701CE
:1006100020E030E040E050E00E94FA0918162CF08B
:100620008091200161E00E94620988EE91E00E94C1
:100630003A0761E070E080E090E00E948B08C0E043
:10064000D0E01DC08091260161E00E9462096091A6
:100650002A0170912B0180912C0190912D010E9413
:100660006B0ADC01CB010E94B1088091260160E099
:100670000E9462098AE090E00E94B1082196CC15A0
:10068000DD0504F360915001709151018091520198
:10069000909153010E94990AA80197010E9496091E
:1006A0000E94660A60935001709351018093520139
:1006B0009093530188EE91E060E071E00E941A0887
:1006C000409150015091510160915201709153013C
:1006D00088EE91E02AE030E00E94DA0761E070E005
:1006E00080E090E00E948B08DF91CF911F910F91E5
:1006F000FF90EF90DF90CF900895CF92DF92EF922E
:10070000FF920F931F93CF93DF937B018C01A8017E
:1007100097010E944D0B0E94B40B0E94660A6B0168
:10072000C801B70120E030E040E85FE30E94490BD8
:1007300088232CF080911E0160E00E946209C801AC
:10074000B70120E030E040E050E00E94FA091816BE
:100750002CF080911E0161E00E946209C0E0D0E0AF
:100760001DC08091240161E00E94620960912A010C
:1007700070912B0180912C0190912D010E946B0AA8
:10078000DC01CB010E94B1088091240160E00E944D
:1007900062098AE090E00E94B1082196CC15DD053F
:1007A00004F3609148017091490180914A01909150
:1007B0004B010E94990AA80197010E9496090E9484
:1007C000660A609348017093490180934A019093AF
:1007D0004B0188EE91E06FE071E00E941A084091B1
:1007E00048015091490160914A0170914B0188EE96
:1007F00091E02AE030E00E94DA0761E070E080E0FA
:1008000090E00E948B08DF91CF911F910F91FF9094
:10081000EF90DF90CF900895AF92BF92CF92DF928A
:10082000EF92FF920F931F9380912E0190912F01D1
:100830000E948C0020914C0130914D0140914E015D
:1008400050914F01A0904801B0904901C0904A01D9
:10085000D0904B01C9018A199B0990934101809363
:100860004001609154017091550180915601909121
:100870005701E0905001F090510100915201109108
:100880005301FB01EE19FF09F0934301E09342018C
:10089000E0915C01F0915D01A0915801B091590186
:1008A000EA1BFB0BF0934501E09344016E197F09AD
:1008B000800B910B2A193B094C095D090E94560CCB
:1008C000309347012093460160E070E48CE996EC98
:1008D0000E94E40260E070E48CE996EC0E94E4027D
:1008E00064EF71E080E090E00E948B0860E070E4CB
:1008F0008CE996E40E94E40260E070E48CE996E4FE
:100900000E94E40264EF71E080E090E00E948B08B6
:1009100020914401309145012115310549F0B9017B
:10092000882777FD8095982F0E94990A0E944B0294
:100930008091420190914301209140013091410109
:10094000009751F4B901882777FD8095982F0E9470
:10095000990A0E947D0322C05C01CC24B7FCC0949C
:10096000DC2C2115310539F4C601B5010E94990A24
:100970000E94E40213C0B901882777FD8095982F63
:100980000E94990A7B018C01C601B5010E94990A57
:100990009B01AC01C801B7010E94B1001F910F91EA
:1009A000FF90EF90DF90CF90BF90AF90089588EECA
:1009B00091E040E855E260E070E00E947A058DE049
:1009C00061E00E94F6088CE061E00E94F6088BE08E
:1009D00061E00E94F6088AE061E00E94F60808954E
:1009E00008951F920F920FB60F9211242F933F93E9
:1009F0004F938F939F93EF93FF938091C00082FD5D
:100A00001DC04091C6002091A0013091A1012F5F2F
:100A10003F4F2F7330708091A2019091A30128174E
:100A2000390771F0E091A001F091A101E05AFE4F69
:100A300040833093A1012093A00102C08091C600A1
:100A4000FF91EF919F918F914F913F912F910F9037
:100A50000FBE0F901F901895E091F401F091F501F1
:100A6000E05CFF4F8191919120813181821B930B3A
:100A70008F739070892B11F00E94F00408951F92DB
:100A80000F920FB60F9211242F933F938F939F9342
:100A9000EF93FF932091E4013091E5018091E6010D
:100AA0009091E7012817390731F48091C1008F7DBB
:100AB0008093C10014C0E091E601F091E701EC558C
:100AC000FE4F20818091E6019091E70101968F739E
:100AD00090709093E7018093E6012093C600FF9108
:100AE000EF919F918F913F912F910F900FBE0F909B
:100AF0001F901895AF92BF92DF92EF92FF920F93E3
:100B00001F93CF93DF93EC017A018B01DD244030FA
:100B100081EE580780E0680780E0780711F0DD2457
:100B2000D39491E0A92EB12CEC89FD89DD2069F0E8
:100B3000C50108A002C0880F991F0A94E2F78083BC
:100B400060E079E08DE390E005C0108260E874E831
:100B50008EE190E0A80197010E94340C21503040B2
:100B600040405040569547953795279580E1203075
:100B7000380720F0DD2011F0DD24D6CFE889F9898F
:100B80003083EA89FB89208319A2EE89FF8940819D
:100B900021E030E0C9010C8C02C0880F991F0A9433
:100BA000E2F7482B4083EE89FF894081C9010D8C13
:100BB00002C0880F991F0A94E2F7482B4083EE8900
:100BC000FF894081C9010E8C02C0880F991F0A94C9
:100BD000E2F7482B4083EE89FF8980810F8C02C0A9
:100BE000220F331F0A94E2F7209528232083DF91F8
:100BF000CF911F910F91FF90EF90DF90BF90AF903A
:100C00000895DC011C96ED91FC911D97E05CFF4F6F
:100C10002191319180819181281B390B2F73307084
:100C2000C9010895DC011C96ED91FC911D97E05CD3
:100C3000FF4F20813181E054F040DF01AE5BBF4FB8
:100C40008D919C9111972817390719F42FEF3FEFD9
:100C500007C08D919C91E80FF91F8081282F30E00B
:100C6000C9010895DC011C96ED91FC911D97E05C93
:100C7000FF4F20813181E054F040DF01AE5BBF4F78
:100C80008D919C9111972817390719F42FEF3FEF99
:100C900010C08D919C911197E80FF91F20818D91C3
:100CA0009C91119701968F73907011969C938E93DF
:100CB00030E0C9010895DC0191968C9191978823C9
:100CC00039F05496ED91FC915597808186FFF9CFCC
:100CD00091961C920895CF93DF93EC01EE85FF85EA
:100CE000E05CFF4F20813181E054F0402F5F3F4FA7
:100CF0002F733070DF01AE5BBF4F8D919C911197C8
:100D000028173907D1F3E05CFF4F80819181E054CF
:100D1000F040E80FF91F6083EE85FF85E05CFF4F30
:100D200031832083EE89FF89208181E090E00F8C60
:100D300002C0880F991F0A94E2F7282B208381E0D4
:100D400089A3EC89FD8980818064808381E090E0C3
:100D5000DF91CF9108951092EB011092EA0188EE95
:100D600093E0A0E0B0E08093EC019093ED01A093BC
:100D7000EE01B093EF0184E391E09093E901809359
:100D8000E80180E691E09093F5018093F40184EA14
:100D900091E09093F7018093F60185EC90E09093B9
:100DA000F9018093F80184EC90E09093FB0180932B
:100DB000FA0180EC90E09093FD018093FC0181ECBE
:100DC00090E09093FF018093FE0182EC90E090937D
:100DD00001028093000286EC90E0909303028093DE
:100DE000020284E08093040283E08093050287E09E
:100DF0008093060285E08093070281E080930802D9
:100E00000895CF93DF930E94BB080E94D704CCE2E1
:100E1000D5E00E940C042097E1F30E942C05F9CF45
:100E2000CF92DF92EF92FF920F931F93CF93DF93B6
:100E30007C016B018A01C0E0D0E00FC0D6016D914A
:100E40006D01D701ED91FC910190F081E02DC7017A
:100E50000995C80FD91F015010400115110571F7F0
:100E6000CE01DF91CF911F910F91FF90EF90DF9016
:100E7000CF900895EF92FF920F931F938C01DC01A6
:100E8000ED91FC910190F081E02D6DE009957C01E0
:100E9000D801ED91FC910190F081E02DC8016AE04C
:100EA00009959C012E0D3F1DC9011F910F91FF90C7
:100EB000EF900895CF93DF93EC016115710519F45C
:100EC00020E030E00FC0DB010D900020E9F7119722
:100ED000A61BB70BE881F9810280F381E02DAD01FB
:100EE00009959C01C901DF91CF9108954F925F92BE
:100EF0007F928F929F92AF92BF92CF92DF92EF92AA
:100F0000FF920F931F93DF93CF93CDB7DEB7A197D7
:100F10000FB6F894DEBF0FBECDBF2C01742ECB01EF
:100F2000223008F42AE019A231E2C32ED12CCC0ED3
:100F3000DD1E822E9924AA24BB24672D752FA501BE
:100F400094010E94340C79018A01C801B701A501FE
:100F500094010E94150C472D461B0894C108D10826
:100F60004A3014F4405D01C0495CF6014083E1144D
:100F7000F1040105110521F07E2C5F2DC801DDCFA4
:100F8000C201B6010E945A07A1960FB6F894DEBFBF
:100F90000FBECDBFCF91DF911F910F91FF90EF90CA
:100FA000DF90CF90BF90AF909F908F907F905F9099
:100FB0004F900895CF92DF92EF92FF920F931F937D
:100FC000CF93DF93EC016A017B012115310541F4D8
:100FD000E881F9810190F081E02D642F09951FC00F
:100FE0002A303105D1F477FF17C0E881F9810190EB
:100FF000F081E02D6DE209958C0144275527BA0157
:101000004C195D096E097F09CE012AE00E9476071E
:101010009801280F391F04C02AE00E9476079C011E
:10102000C901DF91CF911F910F91FF90EF90DF9059
:10103000CF9008950E945A0708951F920F920FB6FD
:101040000F9211242F933F938F939F93AF93BF934E
:1010500080910E0290910F02A0911002B0911102A6
:10106000309112020196A11DB11D232F2D5F2D3746
:1010700020F02D570196A11DB11D209312028093DF
:101080000E0290930F02A0931002B0931102809170
:101090000A0290910B02A0910C02B0910D020196F0
:1010A000A11DB11D80930A0290930B02A0930C0224
:1010B000B0930D02BF91AF919F918F913F912F916E
:1010C0000F900FBE0F901F9018959FB7F894209126
:1010D0000A0230910B0240910C0250910D0286B52C
:1010E000A89B06C08F3F21F02F5F3F4F4F4F5F4FB0
:1010F0009FBF542F432F322F2227280F311D411D10
:10110000511D82E0220F331F441F551F8A95D1F7CE
:10111000B901CA010895EF92FF920F931F93CF93E5
:10112000DF937B018C010E946508EB010EC00E94D9
:1011300065086C1B7D0B685E7340C8F30894E1087A
:10114000F10801091109C851DC4FE114F10401054E
:10115000110569F7DF91CF911F910F91FF90EF90EB
:101160000895019739F0880F991F880F991F0297EA
:101170000197F1F70895789484B5826084BD84B5B1
:10118000816084BD85B5826085BD85B5816085BD82
:10119000EEE6F0E0808181608083E1E8F0E010829B
:1011A000808182608083808181608083E0E8F0E0DC
:1011B000808181608083E1EBF0E0808184608083C6
:1011C000E0EBF0E0808181608083EAE7F0E08081FD
:1011D000846080838081826080838081816080835D
:1011E0008081806880831092C1000895CF93DF933F
:1011F000482F50E0CA0186569F4FFC0134914A5750
:101200005F4FFA018491882369F190E0880F991F5C
:10121000FC01E859FF4FA591B491FC01EE58FF4F36
:10122000C591D491662351F42FB7F8948C91932FE4
:10123000909589238C93888189230BC0623061F457
:101240002FB7F8948C91932F909589238C93888154
:10125000832B88832FBF06C09FB7F8948C91832B74
:101260008C939FBFDF91CF910895833071F08430CC
:1012700028F48130A1F0823021F514C08630B1F01D
:101280008730D1F08430E9F404C0809180008F77FA
:1012900003C0809180008F7D80938000089584B585
:1012A0008F7702C084B58F7D84BD08958091B00092
:1012B0008F778093B00008958091B0008F7D8093E8
:1012C000B0000895FF920F931F93F62E482F50E021
:1012D000CA0182559F4FFC012491CA0186569F4F37
:1012E000FC0114914A575F4FFA0104910023C9F0A1
:1012F000222319F0822F0E943509E02FF0E0EE0F33
:10130000FF1FEE58FF4FA591B4919FB7F894FF20AF
:1013100021F48C911095812302C08C91812B8C93A8
:101320009FBF1F910F91FF9008955058BB27AA2788
:101330000ED075C166D130F06BD120F031F49F3FF3
:1013400011F41EF45BC10EF4E095E7FB51C1E92FE7
:1013500077D180F3BA17620773078407950718F0EF
:1013600071F49EF58FC10EF4E0950B2EBA2FA02DCF
:101370000B01B90190010C01CA01A0011124FF2742
:10138000591B99F0593F50F4503E68F11A16F0403D
:10139000A22F232F342F4427585FF3CF469537953C
:1013A0002795A795F0405395C9F77EF41F16BA0B01
:1013B000620B730B840BBAF09150A1F0FF0FBB1FAF
:1013C000661F771F881FC2F70EC0BA0F621F731FF8
:1013D000841F48F4879577956795B795F7959E3F55
:1013E00008F0B3CF9395880F08F09927EE0F9795E3
:1013F00087950895D9D008F481E008950CD00FC1E5
:1014000007D140F0FED030F021F45F3F19F0F0C07A
:10141000511139C1F3C014D198F39923C9F355235D
:10142000B1F3951B550BBB27AA27621773078407D7
:1014300038F09F5F5F4F220F331F441FAA1FA9F38D
:1014400033D00E2E3AF0E0E830D091505040E6957F
:10145000001CCAF729D0FE2F27D0660F771F881FE0
:10146000BB1F261737074807AB07B0E809F0BB0BCF
:10147000802DBF01FF2793585F4F2AF09E3F5105F3
:1014800068F0B6C000C15F3FECF3983EDCF3869590
:1014900077956795B795F7959F5FC9F7880F911D69
:1014A0009695879597F90895E1E0660F771F881F55
:1014B000BB1F621773078407BA0720F0621B730B08
:1014C000840BBA0BEE1F88F7E095089504D068945A
:1014D000B111D9C00895BCD088F09F5790F0B92FB2
:1014E0009927B751A0F0D1F0660F771F881F991F79
:1014F0001AF0BA95C9F712C0B13081F0C3D0B1E08B
:101500000895C0C0672F782F8827B85F39F0B93F9A
:10151000CCF3869577956795B395D9F73EF490957A
:101520008095709561957F4F8F4F9F4F0895E894F8
:1015300009C097FB3EF490958095709561957F4F1B
:101540008F4F9F4F9923A9F0F92F96E9BB279395C9
:10155000F695879577956795B795F111F8CFFAF4D9
:10156000BB0F11F460FF1BC06F5F7F4F8F4F9F4F0A
:1015700016C0882311F096E911C0772321F09EE868
:10158000872F762F05C0662371F096E8862F70E0CE
:1015900060E02AF09A95660F771F881FDAF7880FA8
:1015A0009695879597F90895990F0008550FAA0BFE
:1015B000E0E8FEEF16161706E807F907C0F0121666
:1015C0001306E407F50798F0621B730B840B950B69
:1015D00039F40A2661F0232B242B252B21F40895BE
:1015E0000A2609F4A140A6958FEF811D811D08955B
:1015F00097F99F6780E870E060E008959FEF80ECC6
:10160000089500240A941616170618060906089568
:1016100000240A9412161306140605060895092ECE
:101620000394000C11F4882352F0BB0F40F4BF2B3D
:1016300011F460FF04C06F5F7F4F8F4F9F4F08957D
:1016400057FD9058440F551F59F05F3F71F0479573
:10165000880F97FB991F61F09F3F79F08795089558
:10166000121613061406551FF2CF4695F1DF08C077
:10167000161617061806991FF1CF86957105610594
:1016800008940895E894BB2766277727CB0197F93C
:1016900008958ADF08F48FEF08950BD0C0CFB1DF33
:1016A00028F0B6DF18F0952309F0A2CFA7CF1124B8
:1016B000EACFC6DFA0F3959FD1F3950F50E0551FF9
:1016C000629FF001729FBB27F00DB11D639FAA2797
:1016D000F00DB11DAA1F649F6627B00DA11D661FE6
:1016E000829F2227B00DA11D621F739FB00DA11D07
:1016F000621F839FA00D611D221F749F3327A00DC1
:10170000611D231F849F600D211D822F762F6A2F5C
:1017100011249F5750408AF0E1F088234AF0EE0FE1
:10172000FF1FBB1F661F771F881F91505040A9F7EE
:101730009E3F510570F05CCFA6CF5F3FECF3983E23
:10174000DCF3869577956795B795F795E7959F5F55
:10175000C1F7FE2B880F911D9695879597F90895EF
:1017600011F40EF44BCF4AC073DFD0F39923D9F3B1
:10177000CEF39F57550B87FF51D056959795B0E004
:1017800020F4660F771F881FBB1F1F930F93002441
:101790009001A0018001F001A0E80E0F1F1F0A1E9A
:1017A000511D601B710B8009B50B48F4600F711F50
:1017B000801DB51F0E1B1F0B0A0A510907C02E0FF3
:1017C0003F1F4A1F0E0F1F1F0A1E511D660F771F56
:1017D000881FBB1FA695F795E795F8F6061717071C
:1017E00008065B07211D311D411D0F911F91B90195
:1017F000842F9158880F9695879508959F3F49F0BB
:10180000915028F4869577956795B7959F5F8038B6
:101810009F4F880F9695879597F90895915050405E
:10182000660F771F881FD2F70895629FD001739FBC
:10183000F001829FE00DF11D649FE00DF11D929F6C
:10184000F00D839FF00D749FF00D659FF00D9927AB
:10185000729FB00DE11DF91F639FB00DE11DF91FCF
:10186000BD01CF0111240895A1E21A2EAA1BBB1BB2
:10187000FD010DC0AA1FBB1FEE1FFF1FA217B3075C
:10188000E407F50720F0A21BB30BE40BF50B661F72
:10189000771F881F991F1A9469F760957095809536
:1018A00090959B01AC01BD01CF01089597FB092ED6
:1018B00005260ED057FD04D0D7DF0AD0001C38F41F
:1018C00050954095309521953F4F4F4F5F4F08956C
:1018D000F6F790958095709561957F4F8F4F9F4F4C
:1018E0000895EE0FFF1F0590F491E02D0994F894F0
:0218F000FFCF28
:1018F2000A7920706F736974696F6E203D20000A47
:101902007820706F736974696F6E203D20000D003E
:101912000A0009000C000B0008000000803FA00034
:10192200000000006B0610070106320612065B0675
:00000001FF
