:100000000C9462000C948A000C948A000C948A0070
:100010000C948A000C948A000C948A000C948A0038
:100020000C948A000C948A000C948A000C948A0028
:100030000C948A000C948A000C948A000C948A0018
:100040000C94250F0C948A000C94AC0A0C94FA0AB8
:100050000C948A000C948A000C948A000C948A00F8
:100060000C948A000C948A000000000024002700F1
:100070002A0000000000250028002B0000000000DE
:1000800023002600290004040404040404040202DA
:100090000202020203030303030301020408102007
:1000A0004080010204081020010204081020000012
:1000B0000007000201000003040600000000000029
:1000C0000000660C11241FBECFEFD8E0DEBFCDBF0D
:1000D00011E0A0E0B1E0E2E4F7E202C005900D9289
:1000E000AE3AB107D9F712E0AEEAB1E001C01D9215
:1000F000AD36B107E1F710E0C4ECD0E004C02297C0
:10010000FE010E946413C23CD107C9F70E94BC0CD7
:100110000C949F130C940000CF93DF93BC018230AA
:10012000910510F462E070E0A0916502B091660262
:10013000ED01E0E0F0E040E050E021C088819981ED
:100140008617970769F48A819B81309719F093830A
:10015000828304C09093660280936502FE0134C0DE
:100160006817790738F44115510519F08417950778
:1001700008F4AC01FE018A819B819C01E901209772
:10018000E9F641155105A9F1CA01861B970B0497A1
:1001900008F4BA01E0E0F0E02AC08D919C9111973B
:1001A00084179507F9F46417750781F412968D91F9
:1001B0009C911397309719F09383828304C0909396
:1001C000660280936502FD0132964CC0CA01861B0F
:1001D000970BFD01E80FF91F6193719302978D93BF
:1001E0009C9340C0FD01828193819C01D9011097AD
:1001F000A1F68091630290916402892B41F4809171
:100200008D0190918E0190936402809363024091DE
:100210008F01509190014115510541F44DB75EB7E2
:1002200080918B0190918C01481B590B20916302A6
:1002300030916402CA01821B930B8617970780F0E6
:10024000AB014E5F5F4F8417950750F0420F531F6D
:100250005093640240936302F9016193719302C069
:10026000E0E0F0E0CF01DF91CF910895CF93DF93ED
:10027000009709F450C0EC0122971B821A82A091CA
:100280006502B0916602109709F140E050E0AC17AA
:10029000BD0708F1BB83AA83FE0121913191E20FD2
:1002A000F31FAE17BF0779F48D919C911197280F1A
:1002B000391F2E5F3F4F3983288312968D919C9171
:1002C00013979B838A834115510571F4D09366027D
:1002D000C093650220C012968D919C911397AD0139
:1002E000009711F0DC01D3CFFA01D383C2832191AF
:1002F0003191E20FF31FCE17DF0769F488819981EE
:10030000280F391F2E5F3F4FFA01318320838A81E6
:100310009B8193838283DF91CF910895FC0188278D
:100320009927E89421912032E9F3293010F02E30FA
:10033000C8F32B3241F02D3239F4689404C00E9486
:100340001F02820F911D219120532A30C0F31EF409
:10035000909581959F4F08951F93FC0199278827B9
:10036000BC01E89411911032E9F3193010F01E30FD
:10037000C8F31B3251F01D3249F4689406C00E9444
:100380000A02610F711D811D911D119110531A30C8
:10039000B0F33EF490958095709561957F4F8F4FA7
:1003A0009F4F1F9108954EEA51E00E94D801089591
:1003B000009731F4DA018D919C91009709F40EC0F9
:1003C000DC01FB013D912191222319F03217C9F381
:1003D000FACF332331F4DA011D921C928827992732
:1003E00008951197AF93BF93FB013D91219132176F
:1003F00071F4332321F488279927119702C01E92A4
:100400001196FA01A193B0839F918F9108952223B1
:1004100069F7EACF592F482F372F262F660F771FFE
:10042000881F991F660F771F881F991F620F731F00
:10043000841F951F660F771F881F991F08957AE004
:10044000979F902D879F802D910D11240895A0E0F6
:10045000B0E0EDE2F2E00C947813FE013596619184
:1004600071918091690290916A02AF010E943C02F1
:100470002096E2E00C949413ABE0B0E0E2E4F2E00A
:100480000C9468133C012B015A01FC01178216825F
:10049000838181FD03C06FEF7FEFC6C19AE0892E93
:1004A0001E010894211C311CF3012381F20123FD5C
:1004B000859123FF81912F01882309F4B2C18532F0
:1004C00039F423FD859123FF81912F01853229F491
:1004D00090E0B3010E942F04E7CF982FFF24EE2471
:1004E0009924FFE1FF15D0F09B3269F09C3228F48B
:1004F000903259F0933291F40EC09D3249F090330E
:1005000069F441E024C052E0F52A84E0F82A28C0CA
:1005100098E0F92A25C0E0E1FE2A22C0F7FC29C0B4
:10052000892F80538A3070F4F6FE05C0989C902C79
:100530001124980E15C0E89CE02C1124E80EF0E27E
:10054000FF2A0EC09E3229F4F6FC6BC140E4F42A67
:1005500007C09C3619F450E8F52A02C0983649F4D1
:10056000F20123FD959123FF91912F01992309F029
:10057000B8CF892F8554833018F08052833038F4F7
:1005800044E050E0A40EB51E5FE359830FC09336DC
:1005900031F0933779F0933509F056C020C0F5015A
:1005A0008081898342E050E0A40EB51E610101E024
:1005B00010E012C0F501C080D180F6FC03C06FEFDF
:1005C0007FEF02C0692D70E042E050E0A40EB51E3E
:1005D000C6010E9424048C015FE7F52214C0F501D6
:1005E000C080D180F6FC03C06FEF7FEF02C0692DA1
:1005F00070E042E050E0A40EB51EC6010E9419044E
:100600008C0150E8F52AF3FE07C01AC080E290E0A2
:10061000B3010E942F04EA948E2D90E00817190769
:10062000A8F30EC0F601F7FC8591F7FE81916F01EA
:1006300090E0B3010E942F04E110EA9401501040B1
:100640000115110579F7EAC0943611F0993669F56C
:10065000F7FE08C0F501208131814281538184E099
:1006600090E00AC0F501808191819C01442737FD0B
:100670004095542F82E090E0A80EB91E9FE6F92223
:1006800057FF09C050954095309521953F4F4F4FEA
:100690005F4FE0E8FE2ACA01B901A1012AE030E07B
:1006A0000E945B04D82ED21840C0953729F41F2D24
:1006B0001F7E2AE030E01DC01F2D197F9F3661F09C
:1006C000903720F4983509F0ACC00FC0903739F05E
:1006D000983709F0A6C004C028E030E00AC01061D5
:1006E00014FD146020E130E004C014FD166020E128
:1006F00032E017FF08C0F50160817181828193812A
:1007000044E050E008C0F50180819181BC0180E0A7
:1007100090E042E050E0A40EB51EA1010E945B04EF
:10072000D82ED2188FE7F82EF122F6FE0BC05EEF1E
:10073000F522D91438F4F4FE07C0F2FC05C08FEEA0
:10074000F82202C01D2D01C0192DF4FE0DC0FE01BE
:10075000ED0DF11D8081803319F499EEF92208C066
:100760001F5FF2FE05C003C08F2D867809F01F5F62
:100770000F2DF3FC14C0F0FE0FC01E1510F09D2CC1
:100780000BC09D2C9E0C911A1E2D06C080E290E09D
:10079000B3010E942F041F5F1E15C0F304C01E1575
:1007A00010F4E11A01C0EE2404FF0FC080E390E0D2
:1007B000B3010E942F0402FF1DC001FD03C088E7A2
:1007C00090E00EC088E590E00BC0802F867891F015
:1007D00001FF02C08BE201C080E2F7FC8DE290E0F5
:1007E000B3010E942F0406C080E390E0B3010E9491
:1007F0002F049A94D914C0F3DA94F101ED0DF11D90
:10080000808190E0B3010E942F04DD20A9F706C08B
:1008100080E290E0B3010E942F04EA94EE20C1F739
:1008200043CEF30166817781CB012B96E2E10C94F4
:100830008413FC010590615070400110D8F7809539
:1008400090958E0F9F1F0895FC016150704001909C
:100850000110D8F7809590958E0F9F1F08950F93E4
:100860001F93CF93DF938C01EB018B8181FF1BC022
:1008700082FF0DC02E813F818C819D812817390711
:1008800064F4E881F9810193F983E88306C0E8857F
:10089000F985802F0995892B31F48E819F810196EE
:1008A0009F838E8302C00FEF1FEFC801DF91CF91AE
:1008B0001F910F910895FA01AA27283051F1203194
:1008C00081F1E8946F936E7F6E5F7F4F8F4F9F4FE4
:1008D000AF4FB1E03ED0B4E03CD0670F781F891F26
:1008E0009A1FA11D680F791F8A1F911DA11D6A0FF4
:1008F000711D811D911DA11D20D009F468943F91A7
:100900002AE0269F11243019305D3193DEF6CF01A5
:100910000895462F4770405D4193B3E00FD0C9F76B
:10092000F6CF462F4F70405D4A3318F0495D31FDD8
:100930004052419302D0A9F7EACFB4E0A69597952B
:10094000879577956795BA95C9F700976105710501
:1009500008959B01AC010A2E06945795479537954B
:100960002795BA95C9F7620F731F841F951FA01DA5
:1009700008950F931F938B01A0E0B0E0BC01CD015F
:100980000E949F119B01AC016AE979E989E99EE324
:100990000E94061120E034E244E759E40E94551217
:1009A00020E030E040E251E40E949D100E9473116B
:1009B000F80160837183828393831F910F9108955F
:1009C000CF92DF92EF92FF920F931F93CF93DF931B
:1009D000EC017A0169018881873491F5CE0160E0EC
:1009E00071E00E94D3010E948E019C018B818434AE
:1009F00061F480E090E066E071E00E94D3010E9423
:100A00008E01F8019183808393C02430310509F071
:100A10008FC080E090E06AE071E00E94D30100D0D6
:100A200000D08DE091E0EDB7FEB792838183D4834F
:100A3000C3830E9427020F900F900F900F9078C0F1
:100A4000883509F075C0CE0160E171E00E94D301E4
:100A50000E94AC010E949F1120E030E04AE754E47C
:100A60000E94061120E030E04AE753E40E9455124C
:100A70000E947311F701608371838283938388E3FB
:100A800092E066E171E00E94150EF701408151810C
:100A90006281738188E392E02AE030E00E94A40D35
:100AA00080E090E069E171E00E94D3010E94AC0116
:100AB0000E949F1120E030E04AE754E40E940611B2
:100AC00020E030E04AE753E40E9455120E9473117F
:100AD000F601608371838283938388E392E06EE101
:100AE00071E00E94150EF60140815181628173818F
:100AF00088E392E02AE030E00E94A40D80E090E0DC
:100B000066E071E00E94D3010E948E01F80191839A
:100B1000808388E392E061E271E00E94150EF801A3
:100B20006081718188E392E04AE050E00E94B80D54
:100B3000DF91CF911F910F91FF90EF90DF90CF90B9
:100B40000895EF92FF920F931F93CF93DF938C0141
:100B50007B01EA0188E392E00E94BC0B892BD1F370
:100B600016C0CE15DF056CF488E392E00E94ED0B11
:100B7000F801EC0FFD1F80832196F801EC0FFD1F9B
:100B8000108265E070E080E090E00E94930F88E3BF
:100B900092E00E94BC0B181619061CF3DF91CF914E
:100BA0001F910F91FF90EF9008956F927F928F9217
:100BB0009F92AF92BF92CF92DF92EF92FF920F93EC
:100BC0001F93CF93DF936B017C0149015A01E80128
:100BD000A70196010E9455120E94BC120E946E113C
:100BE0003B01C701B60120E030E040E85FE30E942E
:100BF000511288232CF08091950160E00E946A10C8
:100C0000C701B60120E030E040E050E00E94021150
:100C100018162CF08091950161E00E946A1088E31B
:100C200092E00E94F50C61E070E080E090E00E94AC
:100C3000930F00E010E013C080919B0161E00E94DF
:100C40006A10C4010E94B90F80919B0160E00E946C
:100C50006A108AE090E00E94B90F0F5F1F4F0615DF
:100C6000170554F3688179818A819B810E949F11C5
:100C7000A70196010E949E100E94731168837983D8
:100C80008A839B8388E392E064E271E00E94150E00
:100C9000488159816A817B8188E392E02AE030E0D3
:100CA0000E94950D61E070E080E090E00E94930F5B
:100CB000DF91CF911F910F91FF90EF90DF90CF9038
:100CC000BF90AF909F908F907F906F9008956F929C
:100CD0007F928F929F92AF92BF92CF92DF92EF92CC
:100CE000FF920F931F93CF93DF936B017C01490118
:100CF0005A01E801A70196010E9455120E94BC12F8
:100D00000E946E113B01C701B60120E030E040E8CF
:100D10005FE30E94511288232CF08091930160E0E0
:100D20000E946A10C701B60120E030E040E050E0C8
:100D30000E94021118162CF08091930161E00E942C
:100D40006A1088E392E00E94F50C61E070E080E0B8
:100D500090E00E94930F00E010E013C08091990191
:100D600061E00E946A10C4010E94B90F809199014C
:100D700060E00E946A108AE090E00E94B90F0F5F65
:100D80001F4F0615170554F3688179818A819B816D
:100D90000E949F11A70196010E949E100E9473114C
:100DA000688379838A839B8388E392E064E271E0BD
:100DB0000E94150E488159816A817B8188E392E007
:100DC0002AE030E00E94950D61E070E080E090E064
:100DD0000E94930FDF91CF911F910F91FF90EF90A1
:100DE000DF90CF90BF90AF909F908F907F906F904B
:100DF00008956F927F928F929F92AF92BF92CF92FF
:100E0000DF92EF92FF920F931F93CF93DF936B01CB
:100E10007C0149015A01E801A70196010E9455127F
:100E20000E94BC120E946E113B01C701B60120E076
:100E300030E040E85FE30E94511288232CF080915B
:100E4000910160E00E946A10C701B60120E030E025
:100E500040E050E00E94021118162CF080919101A0
:100E600061E00E946A1000E010E013C080919701D9
:100E700061E00E946A10C4010E94B90F809197013D
:100E800060E00E946A108AE090E00E94B90F0F5F54
:100E90001F4F0615170554F3688179818A819B815C
:100EA0000E949F11A70196010E949E100E9473113B
:100EB000688379838A839B8388E392E063E371E0AC
:100EC0000E94150E488159816A817B8188E392E0F6
:100ED0002AE030E00E94950D61E070E080E090E053
:100EE0000E94930FDF91CF911F910F91FF90EF9090
:100EF000DF90CF90BF90AF909F908F907F906F903A
:100F000008952F923F924F925F926F927F928F92AD
:100F10009F92AF92BF92CF92DF92EF92FF920F9388
:100F20001F93DF93CF93CDB7DEB72E970FB6F8940C
:100F3000DEBF0FBECDBF3B014C0179018A01CA0162
:100F4000B901A40193010E9406111B012C0188E341
:100F500092E0B201A10122E030E00E94FF0E88E39E
:100F600092E062E471E00E94120FC801B70120E034
:100F700030E040E050E00E94021118162CF0809101
:100F8000930160E00E946A10C801B70120E030E0E0
:100F900040E050E00E94511287FF03C00FEF1FEFA7
:100FA00007C08091930161E00E946A1001E010E0A7
:100FB000C401B30120E030E040E050E00E940211A3
:100FC00018162CF08091910160E00E946A10C40113
:100FD000B30120E030E040E050E00E94511288234D
:100FE0000CF4E7C08091910161E00E946A1081E0F9
:100FF00090E0E1C08091990161E00E946A108D81CA
:101000009E810E94B90F8091990160E00E946A1050
:10101000ABA5BCA5AD90BD90CD90DC9013972F8172
:10102000388549855A85A20EB31EC41ED51EAD92C1
:10103000BD92CD92DC9213976FA178A589A59AA550
:101040000E949F11A20191010E9455129B01AC01C7
:1010500060E070E080E090E00E949D107B018C01D8
:101060006BA17CA18DA19EA10E949F119B01AC014F
:10107000C801B7010E949E1069837A838B839C8389
:10108000EDA5FEA560817181828193810E949F11EF
:101090009B01AC01C201B1010E9455129B01AC0140
:1010A00069817A818B819C810E949E107B018C01D9
:1010B000C601B5010E949F119B01AC01C801B70197
:1010C0000E949D109B01AC010E9455127B018C0176
:1010D000C201B101A20191010E94551220E030E04D
:1010E00040E85FE30E949E103B014C01C801B7013C
:1010F00049C08091970161E00E946A108D819E81B4
:101100000E94B90F8091970160E00E946A10ADA51E
:10111000BEA56D917D918D919C9113972B853C85FA
:101120004D855E85620F731F841F951F6D937D93A0
:101130008D939C9313970E949F119B01AC01C20158
:10114000B1010E9455129B01AC0169817A818B81AA
:101150009C810E949E107B018C01EBA5FCA5608107
:101160007181828193810E949F119B01AC01C80112
:10117000B7010E949D109B01AC010E9455129B017A
:10118000AC01CA01A40193010E9406110E94BC1285
:101190005B016C018AE090E00E94B90FC601B501C5
:1011A00020E030E040E85FE30E9451121816BCF4E2
:1011B000A0CF8FEF9FEFBE82AD829801442737FD0D
:1011C0004095542F2F83388749875A879C0144279D
:1011D00037FD4095542F2B873C874D875E87EBA5C5
:1011E000FCA580819181A281B3812BA13CA14DA15D
:1011F0005EA182179307A407B50708F4FBCE88E326
:1012000092E064E471E00E94120F88E392E066E7E6
:1012100071E00E94150EADA5BEA56D917D918D91D9
:101220009C910E949F1120E030E04AE753E40E9425
:101230000611AB01BC0188E392E022E030E00E949D
:10124000FC0E88E392E069E771E00E94150EEBA5C1
:10125000FCA560817181828193810E949F1120E0B1
:1012600030E04AE753E40E940611AB01BC0188E379
:1012700092E022E030E00E94FF0E2E960FB6F89426
:10128000DEBF0FBECDBFCF91DF911F910F91FF90B9
:10129000EF90DF90CF90BF90AF909F908F907F9016
:1012A0006F905F904F903F902F9008952F923F92B4
:1012B0004F925F926F927F928F929F92AF92BF9266
:1012C000CF92DF92EF92FF920F931F93DF93CF9312
:1012D000CDB7DEB76C970FB6F894DEBF0FBECDBFAB
:1012E00081E090E0A0E0B0E08B839C83AD83BE837F
:1012F0001F82188619861A861B861C861D861E86E6
:101300001F86188A198A1A8A1B8A1C8A1D8A1E8AB5
:101310001F8A188E198E1A8E1A82198284E190E023
:101320000E948C008B8F9C8F8B8D9C8D64E170E074
:1013300040E050E00E94A1058B8D9C8D60E070E044
:10134000AE01455F5F4F9E012D5E3F4F8E010F5FE7
:101350001F4F0E94E00486E990E0BE016D5F7F4F61
:101360000E94B9046B857C858D859E852F8138858B
:1013700049855A85621B730B840B950B0E949F1144
:101380001B012C016B897C898D899E892F85388969
:1013900049895A89621B730B840B950B0E949F111C
:1013A0003B014C0169817A8180E090E02F89388D82
:1013B000498D5A8D621B730B840B950B0E949F11F4
:1013C0007B018C01C201B10120E030E040E050E03F
:1013D0000E9451121816ACF0C401B30120E030E0B5
:1013E00040E050E00E94511218165CF0C801B701AD
:1013F00020E030E040E050E00E9451121816ACF0BE
:1014000093CFC801B70120E030E040E050E00E94F7
:10141000021187FD0AC0C801B70120E030E040E0BA
:1014200050E00E94511218165CF42B813C814D81D2
:101430005E81C801B7018E01095E1F4F0E94D5056C
:10144000C401B30120E030E040E050E00E9402110E
:10145000882361F42B813C814D815E81C201B10101
:101460008E01095F1F4F0E94F9065ECFC201B101D4
:1014700020E030E040E050E00E940211AB80BC80F0
:10148000CD80DE80882351F4C401B301A60195010B
:101490008E01015F1F4F0E94670646CF8DB79EB732
:1014A0000C970FB6F8949EBF0FBE8DBFEDB7FEB779
:1014B00031962B893C894D895E89ADB7BEB71196AF
:1014C0002D933D934D935C9314978B859C85AD85AF
:1014D000BE8584839583A683B7838FE090E08C0FCD
:1014E0009D1F91878087A7E0B0E0AC0FBD1FB38739
:1014F000A287C201B101A40193010F2EF0E0EF2EEB
:10150000F0E0FF2EF0E00F2FF0E01F2FF02D0E94F3
:1015100081078DB79EB70C960FB6F8949EBF0FBE8D
:101520008DBF02CF88E392E040E05BE460E070E0D2
:101530000E94350B8DE061E00E94FE0F8CE061E0BF
:101540000E94FE0F8BE061E00E94FE0F8AE061E0E6
:101550000E94FE0F089508951F920F920FB60F92EA
:1015600011242F933F934F938F939F93EF93FF9368
:101570008091C00082FD1DC04091C6002091F00105
:101580003091F1012F5F3F4F2F7330708091F20146
:101590009091F3012817390771F0E091F001F09173
:1015A000F101E055FE4F40833093F1012093F001AB
:1015B00002C08091C600FF91EF919F918F914F9152
:1015C0003F912F910F900FBE0F901F901895E091B3
:1015D0004402F0914502E05CFF4F8191919120819E
:1015E0003181821B930B8F739070892B11F00E94B5
:1015F000AB0A08951F920F920FB60F9211242F93EA
:101600003F938F939F93EF93FF93209134023091F8
:10161000350280913602909137022817390731F44C
:101620008091C1008F7D8093C10014C0E09136028B
:10163000F0913702EC50FE4F20818091360290915C
:10164000370201968F739070909337028093360221
:101650002093C600FF91EF919F918F913F912F9121
:101660000F900FBE0F901F901895AF92BF92DF9210
:10167000EF92FF920F931F93CF93DF93EC017A01C8
:101680008B01DD24403081EE580780E0680780E060
:10169000780711F0DD24D39491E0A92EB12CEC89C8
:1016A000FD89DD2069F0C50108A002C0880F991FDF
:1016B0000A94E2F7808360E079E08DE390E005C072
:1016C000108260E874E88EE190E0A80197010E9422
:1016D0004013215030404040504056954795379533
:1016E000279580E12030380720F0DD2011F0DD243F
:1016F000D6CFE889F9893083EA89FB89208319A24A
:10170000EE89FF89408121E030E0C9010C8C02C0E4
:10171000880F991F0A94E2F7482B4083EE89FF89CE
:101720004081C9010D8C02C0880F991F0A94E2F70D
:10173000482B4083EE89FF894081C9010E8C02C08D
:10174000880F991F0A94E2F7482B4083EE89FF899E
:1017500080810F8C02C0220F331F0A94E2F720957C
:1017600028232083DF91CF911F910F91FF90EF905D
:10177000DF90BF90AF900895DC011C96ED91FC9135
:101780001D97E05CFF4F2191319180819181281B51
:10179000390B2F733070C9010895DC011C96ED914F
:1017A000FC911D97E05CFF4F20813181E054F040B7
:1017B000DF01AE5BBF4F8D919C91119728173907C0
:1017C00019F42FEF3FEF07C08D919C91E80FF91F9F
:1017D0008081282F30E0C9010895DC011C96ED912D
:1017E000FC911D97E05CFF4F20813181E054F04077
:1017F000DF01AE5BBF4F8D919C9111972817390780
:1018000019F42FEF3FEF10C08D919C911197E80FC5
:10181000F91F20818D919C91119701968F73907083
:1018200011969C938E9330E0C9010895DC01919646
:101830008C919197882339F05496ED91FC915597AE
:10184000808186FFF9CF91961C920895CF93DF9304
:10185000EC01EE85FF85E05CFF4F20813181E05493
:10186000F0402F5F3F4F2F733070DF01AE5BBF4FF3
:101870008D919C91119728173907D1F3E05CFF4FA8
:1018800080819181E054F040E80FF91F6083EE857C
:10189000FF85E05CFF4F31832083EE89FF89208143
:1018A00081E090E00F8C02C0880F991F0A94E2F744
:1018B000282B208381E089A3EC89FD8980818064C5
:1018C000808381E090E0DF91CF91089510923B02F8
:1018D00010923A0288EE93E0A0E0B0E080933C02E0
:1018E00090933D02A0933E02B0933F0281EA91E0C3
:1018F000909339028093380280EB91E090934502F7
:101900008093440284EF91E09093470280934602D3
:1019100085EC90E0909349028093480284EC90E03B
:1019200090934B0280934A0280EC90E090934D029A
:1019300080934C0281EC90E090934F0280934E0292
:1019400082EC90E0909351028093500286EC90E0FC
:10195000909353028093520284E08093540283E078
:101960008093550287E08093560285E0809357026A
:1019700081E0809358020895CF93DF930E94C30FB4
:101980000E94920AC7EEDAE00E9456092097E1F31E
:101990000E94E70AF9CFCF92DF92EF92FF920F9366
:1019A0001F93CF93DF937C016B018A01C0E0D0E0ED
:1019B0000FC0D6016D916D01D701ED91FC910190A1
:1019C000F081E02DC7010995C80FD91F01501040C3
:1019D0000115110571F7CE01DF91CF911F910F9184
:1019E000FF90EF90DF90CF900895EF92FF920F93CA
:1019F0001F938C01DC01ED91FC910190F081E02DB1
:101A00006DE009957C01D801ED91FC910190F08188
:101A1000E02DC8016AE009959C012E0D3F1DC9010A
:101A20001F910F91FF90EF900895CF93DF93EC01FA
:101A30006115710519F420E030E00FC0DB010D9055
:101A40000020E9F71197A61BB70BE881F981028006
:101A5000F381E02DAD0109959C01C901DF91CF9182
:101A600008954F925F927F928F929F92AF92BF9212
:101A7000CF92DF92EF92FF920F931F93DF93CF935A
:101A8000CDB7DEB7A1970FB6F894DEBF0FBECDBFBE
:101A90002C01742ECB01223008F42AE019A231E285
:101AA000C32ED12CCC0EDD1E822E9924AA24BB2459
:101AB000672D752FA50194010E94401379018A01B9
:101AC000C801B701A50194010E942113472D461BAF
:101AD0000894C108D1084A3014F4405D01C0495C43
:101AE000F6014083E114F1040105110521F07E2C7B
:101AF0005F2DC801DDCFC201B6010E94150DA19670
:101B00000FB6F894DEBF0FBECDBFCF91DF911F910E
:101B10000F91FF90EF90DF90CF90BF90AF909F908C
:101B20008F907F905F904F900895DC0121153105D3
:101B300041F4ED91FC910190F081E02D642F099525
:101B400008950E94310D0895EF92FF920F931F9315
:101B50007C010E94950D8C01C7010E94F50C9C012F
:101B6000200F311FC9011F910F91FF90EF90089531
:101B7000CF92DF92EF92FF920F931F936C017B0144
:101B80009A0100E010E0B801A7010E94950D8C01B8
:101B9000C6010E94F50C080F191FC8011F910F9173
:101BA000FF90EF90DF90CF900895CF92DF92EF9269
:101BB000FF920F931F93CF93DF93EC016A017B0198
:101BC0002115310541F4E881F9810190F081E02D82
:101BD000642F09951FC02A303105D1F477FF17C053
:101BE000E881F9810190F081E02D6DE209958C0189
:101BF00044275527BA014C195D096E097F09CE01AA
:101C00002AE00E94310D9801280F391F04C02AE0F4
:101C10000E94310D9C01C901DF91CF911F910F915D
:101C2000FF90EF90DF90CF9008950E94150D0895DA
:101C30007F928F929F92AF92BF92CF92DF92EF925C
:101C4000FF920F931F93CF93DF934C017A018B0187
:101C5000722ECB01BA01A80197010E9406138823B6
:101C600021F0C4016DE771E021C0C0E0D0E0570170
:101C70006801E894D7F8C601B5012FEF3FEF4FE7B1
:101C80005FE70E940613882351F4C601B5012FEFC8
:101C90003FEF4FE75FE70E940211181614F0C1E012
:101CA000D0E0219739F0C40161E871E00E94150D80
:101CB000EC0193C0C801B7012FEF3FEF4FE75FE49E
:101CC0000E945112181654F0C801B7012FEF3FEFD0
:101CD0004FE75FEC0E940211882324F4C40165E8F9
:101CE00071E0E4CFC801B70120E030E040E050E00F
:101CF0000E94021187FD03C0C0E0D0E00EC0D401F5
:101D0000ED91FC910190F081E02DC4016DE2099507
:101D1000EC0117FB109517F9109520E030E040E03A
:101D20005FE3DD240BC0CA01B90120E030E040E2EE
:101D300051E40E9406119B01AC01D394D71498F38F
:101D4000C801B7010E949E105B016C010E947311D3
:101D50007B018C01C401B801A7012AE030E00E9498
:101D6000950DC80FD91F772039F0C40169E871E0DB
:101D70000E94150DC80FD91FC801B7010E949F11FD
:101D80009B01AC01C601B5010E949D1024C020E05A
:101D900030E040E251E40E9455127B018C010E9428
:101DA0006E115B016C01CC24B7FCC094DC2CC40127
:101DB000B601A5012AE030E00E94D50DC80FD91F59
:101DC000C601B5010E94A1119B01AC01C801B70178
:101DD0000E949D107A947720D1F6CE01DF91CF91A9
:101DE0001F910F91FF90EF90DF90CF90BF90AF9039
:101DF0009F908F907F9008950E94180E0895EF9203
:101E0000FF920F931F937C010E94180E8C01C70153
:101E10000E94F50C080F191FC8011F910F91FF9028
:101E2000EF900895EF92FF920F931F937C010E9411
:101E3000150D8C01C7010E94F50C080F191FC80170
:101E40001F910F91FF90EF9008951F920F920FB680
:101E50000F9211242F933F938F939F93AF93BF9330
:101E600080915E0290915F02A0916002B091610248
:101E7000309162020196A11DB11D232F2D5F2D37D8
:101E800020F02D570196A11DB11D20936202809371
:101E90005E0290935F02A0936002B0936102809112
:101EA0005A0290915B02A0915C02B0915D02019692
:101EB000A11DB11D80935A0290935B02A0935C0216
:101EC000B0935D02BF91AF919F918F913F912F9100
:101ED0000F900FBE0F901F9018959FB7F894209108
:101EE0005A0230915B0240915C0250915D0286B5CE
:101EF000A89B06C08F3F21F02F5F3F4F4F4F5F4F92
:101F00009FBF542F432F322F2227280F311D411DF1
:101F1000511D82E0220F331F441F551F8A95D1F7B0
:101F2000B901CA010895EF92FF920F931F93CF93C7
:101F3000DF937B018C010E946D0FEB010EC00E94AC
:101F40006D0F6C1B7D0B685E7340C8F30894E1084D
:101F5000F10801091109C851DC4FE114F104010530
:101F6000110569F7DF91CF911F910F91FF90EF90CD
:101F70000895019739F0880F991F880F991F0297CC
:101F80000197F1F70895789484B5826084BD84B593
:101F9000816084BD85B5826085BD85B5816085BD64
:101FA000EEE6F0E0808181608083E1E8F0E010827D
:101FB000808182608083808181608083E0E8F0E0BE
:101FC000808181608083E1EBF0E0808184608083A8
:101FD000E0EBF0E0808181608083EAE7F0E08081DF
:101FE000846080838081826080838081816080833F
:101FF0008081806880831092C1000895CF93DF9321
:10200000482F50E0CA0186569F4FFC0134914A5731
:102010005F4FFA018491882369F190E0880F991F3E
:10202000FC01E859FF4FA591B491FC01EE58FF4F18
:10203000C591D491662351F42FB7F8948C91932FC6
:10204000909589238C93888189230BC0623061F439
:102050002FB7F8948C91932F909589238C93888136
:10206000832B88832FBF06C09FB7F8948C91832B56
:102070008C939FBFDF91CF910895833071F08430AE
:1020800028F48130A1F0823021F514C08630B1F0FF
:102090008730D1F08430E9F404C0809180008F77DC
:1020A00003C0809180008F7D80938000089584B567
:1020B0008F7702C084B58F7D84BD08958091B00074
:1020C0008F778093B00008958091B0008F7D8093CA
:1020D000B0000895FF920F931F93F62E482F50E003
:1020E000CA0182559F4FFC012491CA0186569F4F19
:1020F000FC0114914A575F4FFA0104910023C9F083
:10210000222319F0822F0E943D10E02FF0E0EE0F05
:10211000FF1FEE58FF4FA591B4919FB7F894FF2091
:1021200021F48C911095812302C08C91812B8C938A
:102130009FBF1F910F91FF9008955058BB27AA276A
:102140000ED075C166D130F06BD120F031F49F3FD5
:1021500011F41EF45BC10EF4E095E7FB51C1E92FC9
:1021600077D180F3BA17620773078407950718F0D1
:1021700071F49EF58FC10EF4E0950B2EBA2FA02DB1
:102180000B01B90190010C01CA01A0011124FF2724
:10219000591B99F0593F50F4503E68F11A16F0401F
:1021A000A22F232F342F4427585FF3CF469537951E
:1021B0002795A795F0405395C9F77EF41F16BA0BE3
:1021C000620B730B840BBAF09150A1F0FF0FBB1F91
:1021D000661F771F881FC2F70EC0BA0F621F731FDA
:1021E000841F48F4879577956795B795F7959E3F37
:1021F00008F0B3CF9395880F08F09927EE0F9795C5
:1022000087950895D9D008F481E008950CD00FC1C6
:1022100007D140F0FED030F021F45F3F19F0F0C05C
:10222000511139C1F3C014D198F39923C9F355233F
:10223000B1F3951B550BBB27AA27621773078407B9
:1022400038F09F5F5F4F220F331F441FAA1FA9F36F
:1022500033D00E2E3AF0E0E830D091505040E69561
:10226000001CCAF729D0FE2F27D0660F771F881FC2
:10227000BB1F261737074807AB07B0E809F0BB0BB1
:10228000802DBF01FF2793585F4F2AF09E3F5105D5
:1022900068F0B6C000C15F3FECF3983EDCF3869572
:1022A00077956795B795F7959F5FC9F7880F911D4B
:1022B0009695879597F90895E1E0660F771F881F37
:1022C000BB1F621773078407BA0720F0621B730BEA
:1022D000840BBA0BEE1F88F7E095089504D068943C
:1022E000B111D9C00895BCD088F09F5790F0B92F94
:1022F0009927B751A0F0D1F0660F771F881F991F5B
:102300001AF0BA95C9F712C0B13081F0C3D0B1E06C
:102310000895C0C0672F782F8827B85F39F0B93F7C
:10232000CCF3869577956795B395D9F73EF490955C
:102330008095709561957F4F8F4F9F4F0895E894DA
:1023400009C097FB3EF490958095709561957F4FFD
:102350008F4F9F4F9923A9F0F92F96E9BB279395AB
:10236000F695879577956795B795F111F8CFFAF4BB
:10237000BB0F11F460FF1BC06F5F7F4F8F4F9F4FEC
:1023800016C0882311F096E911C0772321F09EE84A
:10239000872F762F05C0662371F096E8862F70E0B0
:1023A00060E02AF09A95660F771F881FDAF7880F8A
:1023B0009695879597F90895990F0008550FAA0BE0
:1023C000E0E8FEEF16161706E807F907C0F0121648
:1023D0001306E407F50798F0621B730B840B950B4B
:1023E00039F40A2661F0232B242B252B21F40895A0
:1023F0000A2609F4A140A6958FEF811D811D08953D
:1024000097F99F6780E870E060E008959FEF80ECA7
:10241000089500240A94161617061806090608954A
:1024200000240A9412161306140605060895092EB0
:102430000394000C11F4882352F0BB0F40F4BF2B1F
:1024400011F460FF04C06F5F7F4F8F4F9F4F08955F
:1024500057FD9058440F551F59F05F3F71F0479555
:10246000880F97FB991F61F09F3F79F0879508953A
:10247000121613061406551FF2CF4695F1DF08C059
:10248000161617061806991FF1CF86957105610576
:1024900008940895E894BB2766277727CB0197F91E
:1024A00008958ADF08F48FEF08950BD0C0CFB1DF15
:1024B00028F0B6DF18F0952309F0A2CFA7CF11249A
:1024C000EACFC6DFA0F3959FD1F3950F50E0551FDB
:1024D000629FF001729FBB27F00DB11D639FAA2779
:1024E000F00DB11DAA1F649F6627B00DA11D661FC8
:1024F000829F2227B00DA11D621F739FB00DA11DE9
:10250000621F839FA00D611D221F749F3327A00DA2
:10251000611D231F849F600D211D822F762F6A2F3E
:1025200011249F5750408AF0E1F088234AF0EE0FC3
:10253000FF1FBB1F661F771F881F91505040A9F7D0
:102540009E3F510570F05CCFA6CF5F3FECF3983E05
:10255000DCF3869577956795B795F795E7959F5F37
:10256000C1F7FE2B880F911D9695879597F90895D1
:1025700011F40EF44BCF4EC073DFD0F39923D9F38F
:10258000CEF39F57550B87FF55D056959795B0E0E2
:1025900020F4660F771F881FBB1F1F930F93002423
:1025A0009001A0018001F001A0E80E0F1F1F0A1E7C
:1025B000511D601B710B8009B50B48F4600F711F32
:1025C000801DB51F0E1B1F0B0A0A510907C02E0FD5
:1025D0003F1F4A1F0E0F1F1F0A1E511D660F771F38
:1025E000881FBB1FA695F795E795F8F606171707FE
:1025F00008065B07211D311D411D0F911F91B90177
:10260000842F9158880F969587950895D5DE880B6D
:10261000990B08959F3F49F0915028F4869577953E
:102620006795B7959F5F80389F4F880F96958795E0
:1026300097F9089591505040660F771F881FD2F781
:102640000895629FD001739FF001829FE00DF11DFC
:10265000649FE00DF11D929FF00D839FF00D749F1C
:10266000F00D659FF00D9927729FB00DE11DF91FC8
:10267000639FB00DE11DF91FBD01CF011124089525
:10268000A1E21A2EAA1BBB1BFD010DC0AA1FBB1F76
:10269000EE1FFF1FA217B307E407F50720F0A21BE8
:1026A000B30BE40BF50B661F771F881F991F1A9455
:1026B00069F760957095809590959B01AC01BD017F
:1026C000CF010895EE0FFF1F0590F491E02D0994BE
:1026D0002F923F924F925F926F927F928F929F9232
:1026E000AF92BF92CF92DF92EF92FF920F931F9320
:1026F000CF93DF93CDB7DEB7CA1BDB0B0FB6F894D1
:10270000DEBF0FBECDBF09942A88398848885F8410
:102710006E847D848C849B84AA84B984C884DF8081
:10272000EE80FD800C811B81AA81B981CE0FD11D65
:102730000FB6F894DEBF0FBECDBFED010895F8943B
:02274000FFCFC9
:10274200472044202A0044202A00202A0025730022
:102752005820592D2000783A00592D204400593A2A
:1027620000443A000A7920706F736974696F6E20B1
:102772003D20000A7820706F736974696F6E203D86
:1027820020002000646F6E65212121212121212159
:102792002121212121212121212121212121212127
:1027A2002121212121212121212121212121212117
:1027B200212121212100783D0020793D006E616EAA
:1027C20000696E66006F7666002E0020006D0200C2
:1027D200000D000B0009000C000A000800000000B8
:0E27E20000260CCB0CBC0BED0BCD0B160C0027
:00000001FF
